:08000000803102288731F52F41
:100A68002900160C0139382D08002000110E890CB8
:100A780001393E2D0800640080010131890B402DA9
:100A88000034F000472D2900961C4B2D4C2D472D86
:100A98004D2D70089200080023009D1C542D552DE3
:100AA8005B2D1D12000023001D165B2D5B2D200001
:100AB800911E5F2D602D5B2D612D23001908642D7B
:100AC8000800F400F501F6017A2D853150258531AD
:100AD800F20075087407F30073088600870172082E
:100AE80081000130F5070030F63D7A2D7108760255
:100AF800031D802D70087502031C832D842D692D1C
:100B0800852D0800F400F501F6018A2D7408860089
:100B1800870101088531452585310130F3007308C7
:100B2800F4070130F5070030F63D740886008701A8
:100B38000108031DA02DA12D8A2D72087606031D1C
:100B4800A72D71087506031DAA2DAB2D8A2DF50159
:100B5800F601AF2D8A2D08007A30210099008D0109
:100B6800A0308600003087003230840000308500D5
:100B78003230FB0016001A00FB0BBE2D003020009F
:100B8800A9000030A8002530A7008030A6008631D3
:100B98009926853100302000A9000030A8002530B2
:100BA800A7008030A600873146278531DB2D8531A7
:100BB80039258531003A0319E22DE32DDB2D083064
:100BC800F0000030F10032308531652585318531FE
:100BD80034258531003A0319F22DF32DDB2D083029
:100BE800F1000030F2003230853186258531DB2D69
:100BF800DB2DDB2D803102282000A101F31F052EFB
:100C0800062E132EF009F109F209F309F00A031967
:100C1800F10A0319F20A0319F30AA101A10AF71F3D
:100C2800162E172E272EF409F509F609F709F40AE6
:100C38000319F50A0319F60A0319F70A0130F8002F
:100C48007808A106272E0030A5000030A400003047
:100C5800A3000030A2007308720471047004031921
:100C6800362E372E7E2EA001A00A462E0130F035F2
:100C7800F10DF20DF30D890B3B2E0130F8007808C9
:100C8800A007462EF31F492E4A2E3A2E4C2E4C2EE4
:100C98000130A235A30DA40DA50D890B4D2E7308A7
:100CA8007702031D612E72087602031D612E7108FA
:100CB8007502031D612E70087402031C642E652ED4
:100CC8006F2E7008F4027108F53B7208F63B730842
:100CD800F73B22146F2E0130F336F20CF10CF00CB6
:100CE800890B702E0130A002031D7B2E7C2E4C2E0A
:100CF8007E2E7E2E21080319822E832E8F2EA20986
:100D0800A309A409A509A20A0319A30A0319A40A95
:100D18000319A50A8F2E2508F3002408F2002308DA
:100D2800F1002208F000982E080020002608AA00EA
:100D38002708AB002808AC002908AD000630AA3502
:100D4800AB0DAC0DAD0D890BA32E2D08F3002C08AF
:100D5800F2002B08F1002A08F0002608AE00270848
:100D6800AF002808B0002908B1000630AE35AF0D35
:100D7800B00DB10D890BBA2EAE09AF09B009B10992
:100D8800AE0A0319AF0A0319B00A0319B10A0030F1
:100D98002E07F40024302F3DF500F430303DF600E6
:100DA8000030313DF7008631002686317108FA009F
:100DB8007008F90001307A02003003197902031C27
:100DC800E62EE72E2F2F20002608AA002708AB00C2
:100DD8002808AC002908AD000430AA35AB0DAC0DCD
:100DE800AD0D890BF12E2D08F3002C08F2002B080D
:100DF800F1002A08F0002608AE002708AF002808EE
:100E0800B0002908B1000430AE35AF0DB00DB10DFA
:100E1800890B082FAE09AF09B009B109AE0A031949
:100E2800AF0A0319B00A0319B10A00302E07F400FB
:100E380024302F3DF500F430303DF6000030313DD0
:100E4800F7008631002686317108FA007008F9002B
:100E580023001E152F2F01307A0200300319790262
:100E68000318372F382F452F790823009B001E12AF
:100E78009D1721008E170E1323001D169E16452F51
:100E8800452F080020002608AA002708AB002808DC
:100E9800AC002908AD000630AA35AB0DAC0DAD0D80
:100EA800890B502F2D08F3002C08F2002B08F100B5
:100EB8002A08F0002608AE002708AF002808B0006E
:100EC8002908B1000630AE35AF0DB00DB10D890B54
:100ED800672FAE09AF09B009B109AE0A0319AF0A05
:100EE8000319B00A0319B10A00302E07F4002430A0
:100EF8002F3DF500F430303DF6000030313DF7006D
:100F08008631002687317108FA007008F90001302F
:100F18007A02003003197902031C932F942FDC2FD7
:100F280020002608AA002708AB002808AC002908DA
:100F3800AD000430AA35AB0DAC0DAD0D890B9E2F5D
:100F48002D08F3002C08F2002B08F1002A08F00005
:100F58002608AE002708AF002808B0002908B1000D
:100F68000430AE35AF0DB00DB10D890BB52FAE09FC
:100F7800AF09B009B109AE0A0319AF0A0319B00ADB
:100F88000319B10A00302E07F40024302F3DF50074
:100F9800F430303DF6000030313DF7008631002650
:100FA80087317108FA007008F90029001615DC2F3E
:100FB80001307A020030031979020318E42FE52F73
:100FC800F42F28008D01790829009300161295172F
:100FD80026000D158D10290015169616F42FF42FDE
:100FE8000800A030840000308500323085313F256C
:080FF800873120008531B02D86
:020000040001F9
:08000000FF3FFF3FFF3FFF3F00
:04000E00E4FFFFFF0D
:00000001FF
